{"abi":[{"type":"constructor","inputs":[{"name":"fromToken_","type":"address","internalType":"address"},{"name":"toToken_","type":"address","internalType":"address"}],"stateMutability":"nonpayable"},{"type":"function","name":"accounts","inputs":[{"name":"","type":"address","internalType":"address"}],"outputs":[{"name":"fromDeposited","type":"uint256","internalType":"uint256"},{"name":"toClaimed","type":"uint256","internalType":"uint256"}],"stateMutability":"view"},{"type":"function","name":"exchangeRate","inputs":[],"outputs":[{"name":"","type":"uint256","internalType":"uint256"}],"stateMutability":"view"},{"type":"function","name":"fromToken","inputs":[],"outputs":[{"name":"","type":"address","internalType":"contract IERC20"}],"stateMutability":"view"},{"type":"function","name":"owner","inputs":[],"outputs":[{"name":"","type":"address","internalType":"address"}],"stateMutability":"view"},{"type":"function","name":"phase","inputs":[],"outputs":[{"name":"","type":"uint8","internalType":"enum BatchSwapper.Phase"}],"stateMutability":"view"},{"type":"function","name":"prefundToToken","inputs":[{"name":"amount","type":"uint256","internalType":"uint256"}],"outputs":[],"stateMutability":"nonpayable"},{"type":"function","name":"provide","inputs":[{"name":"amount","type":"uint256","internalType":"uint256"}],"outputs":[],"stateMutability":"nonpayable"},{"type":"function","name":"renounceOwnership","inputs":[],"outputs":[],"stateMutability":"nonpayable"},{"type":"function","name":"swap","inputs":[],"outputs":[],"stateMutability":"nonpayable"},{"type":"function","name":"toToken","inputs":[],"outputs":[{"name":"","type":"address","internalType":"contract IERC20"}],"stateMutability":"view"},{"type":"function","name":"totalFrom","inputs":[],"outputs":[{"name":"","type":"uint256","internalType":"uint256"}],"stateMutability":"view"},{"type":"function","name":"transferOwnership","inputs":[{"name":"newOwner","type":"address","internalType":"address"}],"outputs":[],"stateMutability":"nonpayable"},{"type":"function","name":"withdraw","inputs":[{"name":"amount","type":"uint256","internalType":"uint256"}],"outputs":[],"stateMutability":"nonpayable"},{"type":"event","name":"OwnershipTransferred","inputs":[{"name":"previousOwner","type":"address","indexed":true,"internalType":"address"},{"name":"newOwner","type":"address","indexed":true,"internalType":"address"}],"anonymous":false},{"type":"event","name":"PrefundedToToken","inputs":[{"name":"user","type":"address","indexed":true,"internalType":"address"},{"name":"amount","type":"uint256","indexed":false,"internalType":"uint256"}],"anonymous":false},{"type":"event","name":"Provided","inputs":[{"name":"user","type":"address","indexed":true,"internalType":"address"},{"name":"amountFrom","type":"uint256","indexed":false,"internalType":"uint256"}],"anonymous":false},{"type":"event","name":"Swapped","inputs":[{"name":"totalFrom","type":"uint256","indexed":false,"internalType":"uint256"},{"name":"expectedTo","type":"uint256","indexed":false,"internalType":"uint256"},{"name":"exchangeRate","type":"uint256","indexed":false,"internalType":"uint256"}],"anonymous":false},{"type":"event","name":"WithdrawnFrom","inputs":[{"name":"user","type":"address","indexed":true,"internalType":"address"},{"name":"amountFrom","type":"uint256","indexed":false,"internalType":"uint256"}],"anonymous":false},{"type":"event","name":"WithdrawnTo","inputs":[{"name":"user","type":"address","indexed":true,"internalType":"address"},{"name":"amountTo","type":"uint256","indexed":false,"internalType":"uint256"}],"anonymous":false},{"type":"error","name":"OwnableInvalidOwner","inputs":[{"name":"owner","type":"address","internalType":"address"}]},{"type":"error","name":"OwnableUnauthorizedAccount","inputs":[{"name":"account","type":"address","internalType":"address"}]},{"type":"error","name":"ReentrancyGuardReentrantCall","inputs":[]},{"type":"error","name":"SafeERC20FailedOperation","inputs":[{"name":"token","type":"address","internalType":"address"}]}],"bytecode":{"object":"0x610100604052670de0b6b3a764000060035534801561001c575f5ffd5b50604051611df4380380611df4833981810160405281019061003e9190610430565b335f73ffffffffffffffffffffffffffffffffffffffff168173ffffffffffffffffffffffffffffffffffffffff16036100af575f6040517f1e4fbdf70000000000000000000000000000000000000000000000000000000081526004016100a6919061047d565b60405180910390fd5b6100be816102df60201b60201c565b5060016100dd6100d26103a060201b60201c565b6103c960201b60201c565b5f01819055505f73ffffffffffffffffffffffffffffffffffffffff168273ffffffffffffffffffffffffffffffffffffffff161415801561014b57505f73ffffffffffffffffffffffffffffffffffffffff168173ffffffffffffffffffffffffffffffffffffffff1614155b610153575f5ffd5b8173ffffffffffffffffffffffffffffffffffffffff1660808173ffffffffffffffffffffffffffffffffffffffff16815250508073ffffffffffffffffffffffffffffffffffffffff1660a08173ffffffffffffffffffffffffffffffffffffffff16815250508173ffffffffffffffffffffffffffffffffffffffff1663313ce5676040518163ffffffff1660e01b8152600401602060405180830381865afa158015610204573d5f5f3e3d5ffd5b505050506040513d601f19601f8201168201806040525081019061022891906104cc565b60ff1660c08160ff16815250508073ffffffffffffffffffffffffffffffffffffffff1663313ce5676040518163ffffffff1660e01b8152600401602060405180830381865afa15801561027e573d5f5f3e3d5ffd5b505050506040513d601f19601f820116820180604052508101906102a291906104cc565b60ff1660e08160ff16815250505f5f60146101000a81548160ff021916908360018111156102d3576102d26104f7565b5b02179055505050610524565b5f5f5f9054906101000a900473ffffffffffffffffffffffffffffffffffffffff169050815f5f6101000a81548173ffffffffffffffffffffffffffffffffffffffff021916908373ffffffffffffffffffffffffffffffffffffffff1602179055508173ffffffffffffffffffffffffffffffffffffffff168173ffffffffffffffffffffffffffffffffffffffff167f8be0079c531659141344cd1fd0a4f28419497f9722a3daafe3b4186f6b6457e060405160405180910390a35050565b5f7f9b779b17422d0df92223018b32b4d1fa46e071723d6817e2486d003becc55f005f1b905090565b5f819050919050565b5f5ffd5b5f73ffffffffffffffffffffffffffffffffffffffff82169050919050565b5f6103ff826103d6565b9050919050565b61040f816103f5565b8114610419575f5ffd5b50565b5f8151905061042a81610406565b92915050565b5f5f60408385031215610446576104456103d2565b5b5f6104538582860161041c565b92505060206104648582860161041c565b9150509250929050565b610477816103f5565b82525050565b5f6020820190506104905f83018461046e565b92915050565b5f60ff82169050919050565b6104ab81610496565b81146104b5575f5ffd5b50565b5f815190506104c6816104a2565b92915050565b5f602082840312156104e1576104e06103d2565b5b5f6104ee848285016104b8565b91505092915050565b7f4e487b71000000000000000000000000000000000000000000000000000000005f52602160045260245ffd5b60805160a05160c05160e0516118506105a45f395f8181610c1801528181610c6d01528181610cdc0152610d2501525f8181610c3c01528181610c9101528181610cbb0152610d4601525f81816105b0015281816108170152818161085c01526109cf01525f8181610380015281816106e001526107ed01526118505ff3fe608060405234801561000f575f5ffd5b50600436106100cd575f3560e01c80634649d3301161008a5780638119c065116100645780638119c065146101d85780638da5cb5b146101e2578063b1c9fe6e14610200578063f2fde38b1461021e576100cd565b80634649d330146101815780635e5c06e21461019d578063715018a6146101ce576100cd565b8063193be11f146100d15780632e1a7d4d146100ef5780632e2ebe061461010b57806332a46857146101275780633ba0b9a9146101455780633c93057514610163575b5f5ffd5b6100d961023a565b6040516100e691906110c6565b60405180910390f35b6101096004803603810190610104919061110d565b610240565b005b6101256004803603810190610120919061110d565b610651565b005b61012f6107eb565b60405161013c91906111b2565b60405180910390f35b61014d61080f565b60405161015a91906110c6565b60405180910390f35b61016b610815565b60405161017891906111b2565b60405180910390f35b61019b6004803603810190610196919061110d565b610839565b005b6101b760048036038101906101b29190611206565b6108fa565b6040516101c5929190611231565b60405180910390f35b6101d661091a565b005b6101e061092d565b005b6101ea610ae3565b6040516101f79190611267565b60405180910390f35b610208610b0a565b60405161021591906112f3565b60405180910390f35b61023860048036038101906102339190611206565b610b1c565b005b60025481565b610248610ba0565b5f600181111561025b5761025a611280565b5b5f60149054906101000a900460ff16600181111561027c5761027b611280565b5b03610418575f811161028c575f5ffd5b5f60015f3373ffffffffffffffffffffffffffffffffffffffff1673ffffffffffffffffffffffffffffffffffffffff1681526020019081526020015f205f0154905081811015610312576040517f08c379a000000000000000000000000000000000000000000000000000000000815260040161030990611366565b60405180910390fd5b818161031e91906113b1565b60015f3373ffffffffffffffffffffffffffffffffffffffff1673ffffffffffffffffffffffffffffffffffffffff1681526020019081526020015f205f01819055508160025f82825461037291906113b1565b925050819055506103c433837f000000000000000000000000000000000000000000000000000000000000000073ffffffffffffffffffffffffffffffffffffffff16610bc29092919063ffffffff16565b3373ffffffffffffffffffffffffffffffffffffffff167fe8a75d9b89855a6c6eb06c6f0405c4910acf12bcd2a881be76c26bf9f6598b458360405161040a91906110c6565b60405180910390a250610646565b60018081111561042b5761042a611280565b5b5f60149054906101000a900460ff16600181111561044c5761044b611280565b5b03610645575f60015f3373ffffffffffffffffffffffffffffffffffffffff1673ffffffffffffffffffffffffffffffffffffffff1681526020019081526020015f205f015490505f81116104d6576040517f08c379a00000000000000000000000000000000000000000000000000000000081526004016104cd9061142e565b60405180910390fd5b5f60015f3373ffffffffffffffffffffffffffffffffffffffff1673ffffffffffffffffffffffffffffffffffffffff1681526020019081526020015f206001015414610558576040517f08c379a000000000000000000000000000000000000000000000000000000000815260040161054f90611496565b60405180910390fd5b5f61056282610c15565b90508060015f3373ffffffffffffffffffffffffffffffffffffffff1673ffffffffffffffffffffffffffffffffffffffff1681526020019081526020015f20600101819055506105f433827f000000000000000000000000000000000000000000000000000000000000000073ffffffffffffffffffffffffffffffffffffffff16610bc29092919063ffffffff16565b3373ffffffffffffffffffffffffffffffffffffffff167fe986473adb88164a3135c0b0a057f43ec368108e4e41df874f22134ab17880228260405161063a91906110c6565b60405180910390a250505b5b61064e610d8e565b50565b5f600181111561066457610663611280565b5b5f60149054906101000a900460ff16600181111561068557610684611280565b5b146106c5576040517f08c379a00000000000000000000000000000000000000000000000000000000081526004016106bc906114fe565b60405180910390fd5b6106cd610ba0565b5f81116106d8575f5ffd5b6107253330837f000000000000000000000000000000000000000000000000000000000000000073ffffffffffffffffffffffffffffffffffffffff16610da8909392919063ffffffff16565b8060015f3373ffffffffffffffffffffffffffffffffffffffff1673ffffffffffffffffffffffffffffffffffffffff1681526020019081526020015f205f015f828254610773919061151c565b925050819055508060025f82825461078b919061151c565b925050819055503373ffffffffffffffffffffffffffffffffffffffff167f0d3bfd3bb71e7402df1c9429dc409ddcc442b41f0a3bf5fffa4929bf1982e738826040516107d891906110c6565b60405180910390a26107e8610d8e565b50565b7f000000000000000000000000000000000000000000000000000000000000000081565b60035481565b7f000000000000000000000000000000000000000000000000000000000000000081565b610841610dfd565b610849610ba0565b5f8111610854575f5ffd5b6108a13330837f000000000000000000000000000000000000000000000000000000000000000073ffffffffffffffffffffffffffffffffffffffff16610da8909392919063ffffffff16565b3373ffffffffffffffffffffffffffffffffffffffff167f6c7d9d1c920425364b2adbeebe6c717f4e0b5bb1de5db51425ba25c4e73b4505826040516108e791906110c6565b60405180910390a26108f7610d8e565b50565b6001602052805f5260405f205f91509050805f0154908060010154905082565b610922610dfd565b61092b5f610e84565b565b610935610dfd565b5f600181111561094857610947611280565b5b5f60149054906101000a900460ff16600181111561096957610968611280565b5b146109a9576040517f08c379a00000000000000000000000000000000000000000000000000000000081526004016109a0906114fe565b60405180910390fd5b6109b1610ba0565b5f600254116109be575f5ffd5b5f6109ca600254610c15565b9050807f000000000000000000000000000000000000000000000000000000000000000073ffffffffffffffffffffffffffffffffffffffff166370a08231306040518263ffffffff1660e01b8152600401610a269190611267565b602060405180830381865afa158015610a41573d5f5f3e3d5ffd5b505050506040513d601f19601f82011682018060405250810190610a659190611563565b1015610a6f575f5ffd5b60015f60146101000a81548160ff02191690836001811115610a9457610a93611280565b5b02179055507ffef152b1d7e6e5eab416514383395204200e65849d1ecb011b2b56555e657cc660025482600354604051610ad09392919061158e565b60405180910390a150610ae1610d8e565b565b5f5f5f9054906101000a900473ffffffffffffffffffffffffffffffffffffffff16905090565b5f60149054906101000a900460ff1681565b610b24610dfd565b5f73ffffffffffffffffffffffffffffffffffffffff168173ffffffffffffffffffffffffffffffffffffffff1603610b94575f6040517f1e4fbdf7000000000000000000000000000000000000000000000000000000008152600401610b8b9190611267565b60405180910390fd5b610b9d81610e84565b50565b610ba8610f45565b6002610bba610bb5610f86565b610faf565b5f0181905550565b610bcf8383836001610fb8565b610c1057826040517f5274afe7000000000000000000000000000000000000000000000000000000008152600401610c079190611267565b60405180910390fd5b505050565b5f7f000000000000000000000000000000000000000000000000000000000000000060ff167f000000000000000000000000000000000000000000000000000000000000000060ff1603610c6b57819050610d89565b7f000000000000000000000000000000000000000000000000000000000000000060ff167f000000000000000000000000000000000000000000000000000000000000000060ff161015610d23577f00000000000000000000000000000000000000000000000000000000000000007f0000000000000000000000000000000000000000000000000000000000000000610d0591906115cf565b600a610d119190611732565b82610d1c919061177c565b9050610d89565b7f00000000000000000000000000000000000000000000000000000000000000007f0000000000000000000000000000000000000000000000000000000000000000610d6f91906115cf565b600a610d7b9190611732565b82610d8691906117ea565b90505b919050565b6001610da0610d9b610f86565b610faf565b5f0181905550565b610db684848484600161101a565b610df757836040517f5274afe7000000000000000000000000000000000000000000000000000000008152600401610dee9190611267565b60405180910390fd5b50505050565b610e0561108b565b73ffffffffffffffffffffffffffffffffffffffff16610e23610ae3565b73ffffffffffffffffffffffffffffffffffffffff1614610e8257610e4661108b565b6040517f118cdaa7000000000000000000000000000000000000000000000000000000008152600401610e799190611267565b60405180910390fd5b565b5f5f5f9054906101000a900473ffffffffffffffffffffffffffffffffffffffff169050815f5f6101000a81548173ffffffffffffffffffffffffffffffffffffffff021916908373ffffffffffffffffffffffffffffffffffffffff1602179055508173ffffffffffffffffffffffffffffffffffffffff168173ffffffffffffffffffffffffffffffffffffffff167f8be0079c531659141344cd1fd0a4f28419497f9722a3daafe3b4186f6b6457e060405160405180910390a35050565b610f4d611092565b15610f84576040517f3ee5aeb500000000000000000000000000000000000000000000000000000000815260040160405180910390fd5b565b5f7f9b779b17422d0df92223018b32b4d1fa46e071723d6817e2486d003becc55f005f1b905090565b5f819050919050565b5f5f63a9059cbb60e01b9050604051815f525f1960601c86166004528460245260205f60445f5f8b5af1925060015f5114831661100c578383151615611000573d5f823e3d81fd5b5f873b113d1516831692505b806040525050949350505050565b5f5f6323b872dd60e01b9050604051815f525f1960601c87166004525f1960601c86166024528460445260205f60645f5f8c5af1925060015f5114831661107857838315161561106c573d5f823e3d81fd5b5f883b113d1516831692505b806040525f606052505095945050505050565b5f33905090565b5f60026110a56110a0610f86565b610faf565b5f015414905090565b5f819050919050565b6110c0816110ae565b82525050565b5f6020820190506110d95f8301846110b7565b92915050565b5f5ffd5b6110ec816110ae565b81146110f6575f5ffd5b50565b5f81359050611107816110e3565b92915050565b5f60208284031215611122576111216110df565b5b5f61112f848285016110f9565b91505092915050565b5f73ffffffffffffffffffffffffffffffffffffffff82169050919050565b5f819050919050565b5f61117a61117561117084611138565b611157565b611138565b9050919050565b5f61118b82611160565b9050919050565b5f61119c82611181565b9050919050565b6111ac81611192565b82525050565b5f6020820190506111c55f8301846111a3565b92915050565b5f6111d582611138565b9050919050565b6111e5816111cb565b81146111ef575f5ffd5b50565b5f81359050611200816111dc565b92915050565b5f6020828403121561121b5761121a6110df565b5b5f611228848285016111f2565b91505092915050565b5f6040820190506112445f8301856110b7565b61125160208301846110b7565b9392505050565b611261816111cb565b82525050565b5f60208201905061127a5f830184611258565b92915050565b7f4e487b71000000000000000000000000000000000000000000000000000000005f52602160045260245ffd5b600281106112be576112bd611280565b5b50565b5f8190506112ce826112ad565b919050565b5f6112dd826112c1565b9050919050565b6112ed816112d3565b82525050565b5f6020820190506113065f8301846112e4565b92915050565b5f82825260208201905092915050565b7f4e6f2074656e65732064696e65726f20737566696369656e74652c20524950205f82015250565b5f61135060208361130c565b915061135b8261131c565b602082019050919050565b5f6020820190508181035f83015261137d81611344565b9050919050565b7f4e487b71000000000000000000000000000000000000000000000000000000005f52601160045260245ffd5b5f6113bb826110ae565b91506113c6836110ae565b92508282039050818111156113de576113dd611384565b5b92915050565b7f4e61646120717565207265636c616d61720000000000000000000000000000005f82015250565b5f61141860118361130c565b9150611423826113e4565b602082019050919050565b5f6020820190508181035f8301526114458161140c565b9050919050565b7f5961207265636c616d6173746520746f646f00000000000000000000000000005f82015250565b5f61148060128361130c565b915061148b8261144c565b602082019050919050565b5f6020820190508181035f8301526114ad81611474565b9050919050565b7f4e6f20636f6c6c656374000000000000000000000000000000000000000000005f82015250565b5f6114e8600a8361130c565b91506114f3826114b4565b602082019050919050565b5f6020820190508181035f830152611515816114dc565b9050919050565b5f611526826110ae565b9150611531836110ae565b925082820190508082111561154957611548611384565b5b92915050565b5f8151905061155d816110e3565b92915050565b5f60208284031215611578576115776110df565b5b5f6115858482850161154f565b91505092915050565b5f6060820190506115a15f8301866110b7565b6115ae60208301856110b7565b6115bb60408301846110b7565b949350505050565b5f60ff82169050919050565b5f6115d9826115c3565b91506115e4836115c3565b9250828203905060ff8111156115fd576115fc611384565b5b92915050565b5f8160011c9050919050565b5f5f8291508390505b60018511156116585780860481111561163457611633611384565b5b60018516156116435780820291505b808102905061165185611603565b9450611618565b94509492505050565b5f82611670576001905061172b565b8161167d575f905061172b565b8160018114611693576002811461169d576116cc565b600191505061172b565b60ff8411156116af576116ae611384565b5b8360020a9150848211156116c6576116c5611384565b5b5061172b565b5060208310610133831016604e8410600b84101617156117015782820a9050838111156116fc576116fb611384565b5b61172b565b61170e848484600161160f565b9250905081840481111561172557611724611384565b5b81810290505b9392505050565b5f61173c826110ae565b9150611747836115c3565b92506117747fffffffffffffffffffffffffffffffffffffffffffffffffffffffffffffffff8484611661565b905092915050565b5f611786826110ae565b9150611791836110ae565b925082820261179f816110ae565b915082820484148315176117b6576117b5611384565b5b5092915050565b7f4e487b71000000000000000000000000000000000000000000000000000000005f52601260045260245ffd5b5f6117f4826110ae565b91506117ff836110ae565b92508261180f5761180e6117bd565b5b82820490509291505056fea26469706673582212203acd3ef85207f65443de284a6d4e0221bad4e4edbc67a9201bcd6aaa0debf3a164736f6c634300081e0033","linkReferences":{}},"methodIdentifiers":{"accounts(address)":"5e5c06e2","exchangeRate()":"3ba0b9a9","fromToken()":"32a46857","owner()":"8da5cb5b","phase()":"b1c9fe6e","prefundToToken(uint256)":"4649d330","provide(uint256)":"2e2ebe06","renounceOwnership()":"715018a6","swap()":"8119c065","toToken()":"3c930575","totalFrom()":"193be11f","transferOwnership(address)":"f2fde38b","withdraw(uint256)":"2e1a7d4d"},"id":0}